{
    "contractName": "AttackingContract",
    "abi": [
        {
            "inputs": [],
            "name": "attacker",
            "outputs": [
                {
                    "internalType": "address",
                    "name": "",
                    "type": "address"
                }
            ],
            "stateMutability": "view",
            "type": "function"
        },
        {
            "inputs": [
                {
                    "internalType": "address payable",
                    "name": "myContractAddress",
                    "type": "address"
                }
            ],
            "name": "attackingContract",
            "outputs": [],
            "stateMutability": "nonpayable",
            "type": "function"
        },
        {
            "inputs": [],
            "name": "myContract",
            "outputs": [
                {
                    "internalType": "contract MyContract",
                    "name": "",
                    "type": "address"
                }
            ],
            "stateMutability": "view",
            "type": "function"
        },
        {
            "stateMutability": "payable",
            "type": "receive"
        }
    ],
    "bytecode": "608060405234801561001057600080fd5b506101b6806100206000396000f3fe6080604052600436106100385760003560e01c80633b5fdefc146100ac57806348eb76ee146100f4578063bc33657a1461013057600080fd5b366100a757600054600154604051634f0d005560e11b81526001600160a01b03918216600482015233316024820152911690639e1a00aa90604401600060405180830381600087803b15801561008d57600080fd5b505af11580156100a1573d6000803e3d6000fd5b50505050005b600080fd5b3480156100b857600080fd5b506100f26100c7366004610150565b600080546001600160a01b039092166001600160a01b03199283161790556001805490911633179055565b005b34801561010057600080fd5b50600154610114906001600160a01b031681565b6040516001600160a01b03909116815260200160405180910390f35b34801561013c57600080fd5b50600054610114906001600160a01b031681565b60006020828403121561016257600080fd5b81356001600160a01b038116811461017957600080fd5b939250505056fea2646970667358221220b74d9f4b1b5ceed4bb005e2f21673f92bbc28709463de9b3e287426c9ee9eb6e64736f6c634300080c0033",
    "sourcePath": "c:/Users/yanni/Documents/Formation Alyra/Solidity_security/contracts/05_TxOrigin.sol",
    "compiler": {
        "name": "solc",
        "version": "0.8.12+commit.f00d7308"
    },
    "functionHashes": {
        "attacker()": "48eb76ee",
        "attackingContract(address)": "3b5fdefc",
        "myContract()": "bc33657a"
    },
    "gasEstimates": {
        "creation": {
            "codeDepositCost": "87600",
            "executionCost": "135",
            "totalCost": "87735"
        },
        "external": {
            "attacker()": "2325",
            "attackingContract(address)": "48719",
            "myContract()": "2347"
        }
    }
}