{
    "contractName": "attackerAuction",
    "abi": [
        {
            "inputs": [
                {
                    "internalType": "address",
                    "name": "auctionContract",
                    "type": "address"
                }
            ],
            "name": "attackingContract",
            "outputs": [],
            "stateMutability": "nonpayable",
            "type": "function"
        },
        {
            "inputs": [],
            "name": "auctionAttacked",
            "outputs": [
                {
                    "internalType": "contract auction",
                    "name": "",
                    "type": "address"
                }
            ],
            "stateMutability": "view",
            "type": "function"
        },
        {
            "stateMutability": "payable",
            "type": "receive"
        }
    ],
    "bytecode": "608060405234801561001057600080fd5b5061016b806100206000396000f3fe60806040526004361061002d5760003560e01c80633b5fdefc1461003e5780636e4b51071461005e57600080fd5b3661003957600080fd5b005b600080fd5b34801561004a57600080fd5b50610037610059366004610105565b61009a565b34801561006a57600080fd5b5060005461007e906001600160a01b031681565b6040516001600160a01b03909116815260200160405180910390f35b600080546001600160a01b0319166001600160a01b038316908117825560408051631998aeef60e01b815290519192631998aeef9260048084019382900301818387803b1580156100ea57600080fd5b505af11580156100fe573d6000803e3d6000fd5b5050505050565b60006020828403121561011757600080fd5b81356001600160a01b038116811461012e57600080fd5b939250505056fea2646970667358221220780e3d2ab749018b92c464b6ec2197a5bf57ffaa683fcb4a0fa4dbe3cdfe8b8064736f6c634300080c0033",
    "sourcePath": "c:/Users/yanni/Documents/Formation Alyra/Solidity_security/contracts/08_PullPayment.sol",
    "compiler": {
        "name": "solc",
        "version": "0.8.12+commit.f00d7308"
    },
    "functionHashes": {
        "attackingContract(address)": "3b5fdefc",
        "auctionAttacked()": "6e4b5107"
    },
    "gasEstimates": {
        "creation": {
            "codeDepositCost": "72600",
            "executionCost": "123",
            "totalCost": "72723"
        },
        "external": {
            "attackingContract(address)": "infinite",
            "auctionAttacked()": "2325"
        }
    }
}