{
    "contractName": "auction",
    "abi": [
        {
            "inputs": [],
            "name": "bid",
            "outputs": [],
            "stateMutability": "payable",
            "type": "function"
        },
        {
            "inputs": [],
            "name": "highestBid",
            "outputs": [
                {
                    "internalType": "uint256",
                    "name": "",
                    "type": "uint256"
                }
            ],
            "stateMutability": "view",
            "type": "function"
        },
        {
            "inputs": [],
            "name": "highestBidder",
            "outputs": [
                {
                    "internalType": "address",
                    "name": "",
                    "type": "address"
                }
            ],
            "stateMutability": "view",
            "type": "function"
        }
    ],
    "bytecode": "608060405234801561001057600080fd5b50610175806100206000396000f3fe6080604052600436106100345760003560e01c80631998aeef1461003957806391f9015714610043578063d57bde7914610080575b600080fd5b6100416100a4565b005b34801561004f57600080fd5b50600054610063906001600160a01b031681565b6040516001600160a01b0390911681526020015b60405180910390f35b34801561008c57600080fd5b5061009660015481565b604051908152602001610077565b6001543410156100b357600080fd5b6000546001600160a01b03161561012757600080546001546040516001600160a01b03909216918381818185875af1925050503d8060008114610112576040519150601f19603f3d011682016040523d82523d6000602084013e610117565b606091505b505090508061012557600080fd5b505b600080546001600160a01b031916331790553460015556fea26469706673582212207f2160fe991d20f1262172431e53f413ba4e20ad8caddba6ce962fcf263d2d7364736f6c634300080c0033",
    "sourcePath": "c:/Users/yanni/Documents/Formation Alyra/Solidity_security/contracts/08_PullPayment.sol",
    "compiler": {
        "name": "solc",
        "version": "0.8.12+commit.f00d7308"
    },
    "functionHashes": {
        "bid()": "1998aeef",
        "highestBid()": "d57bde79",
        "highestBidder()": "91f90157"
    },
    "gasEstimates": {
        "creation": {
            "codeDepositCost": "74600",
            "executionCost": "123",
            "totalCost": "74723"
        },
        "external": {
            "bid()": "infinite",
            "highestBid()": "2317",
            "highestBidder()": "2326"
        }
    }
}