{
    "contractName": "auctionFixed",
    "abi": [
        {
            "inputs": [],
            "name": "bid",
            "outputs": [],
            "stateMutability": "payable",
            "type": "function"
        },
        {
            "inputs": [],
            "name": "withdrawRefund",
            "outputs": [],
            "stateMutability": "nonpayable",
            "type": "function"
        }
    ],
    "bytecode": "608060405234801561001057600080fd5b5061017e806100206000396000f3fe6080604052600436106100295760003560e01c8063110f88741461002e5780631998aeef14610045575b600080fd5b34801561003a57600080fd5b5061004361004d565b005b6100436100b9565b33600081815260026020526040808220805490839055905190929083908381818185875af1925050503d80600081146100a2576040519150601f19603f3d011682016040523d82523d6000602084013e6100a7565b606091505b50509050806100b557600080fd5b5050565b6001543410156100c857600080fd5b6000546001600160a01b03161561010a57600154600080546001600160a01b031681526002602052604081208054909190610104908490610122565b90915550505b600080546001600160a01b0319163317905534600155565b6000821982111561014357634e487b7160e01b600052601160045260246000fd5b50019056fea2646970667358221220fa4aeeafd61ca0a91516f509a15ea5c93d0535546aaeca34193c3198cf4a1a6664736f6c634300080c0033",
    "sourcePath": "c:/Users/yanni/Documents/Formation Alyra/Solidity_security/contracts/08_PullPayment.sol",
    "compiler": {
        "name": "solc",
        "version": "0.8.12+commit.f00d7308"
    },
    "functionHashes": {
        "bid()": "1998aeef",
        "withdrawRefund()": "110f8874"
    },
    "gasEstimates": {
        "creation": {
            "codeDepositCost": "76400",
            "executionCost": "123",
            "totalCost": "76523"
        },
        "external": {
            "bid()": "79308",
            "withdrawRefund()": "infinite"
        }
    }
}