{
    "contractName": "Bank",
    "abi": [
        {
            "inputs": [],
            "stateMutability": "nonpayable",
            "type": "constructor"
        },
        {
            "inputs": [],
            "name": "deposit",
            "outputs": [],
            "stateMutability": "payable",
            "type": "function"
        },
        {
            "inputs": [],
            "name": "getBalanceContract",
            "outputs": [
                {
                    "internalType": "uint256",
                    "name": "",
                    "type": "uint256"
                }
            ],
            "stateMutability": "view",
            "type": "function"
        },
        {
            "inputs": [],
            "name": "withdrawAll",
            "outputs": [],
            "stateMutability": "nonpayable",
            "type": "function"
        }
    ],
    "bytecode": "608060405234801561001057600080fd5b50600080546001600160a01b03191633179055610146806100326000396000f3fe6080604052600436106100345760003560e01c806366bd78fd14610039578063853828b614610059578063d0e30db014610070575b600080fd5b34801561004557600080fd5b504760405190815260200160405180910390f35b34801561006557600080fd5b5061006e610078565b005b61006e6100ce565b6000546001600160a01b0316331461008f57600080fd5b47678ac7230489e80000146100a357600080fd5b600080546040516001600160a01b03909116914780156108fc02929091818181858888f15050505050565b6000546001600160a01b031633146100e557600080fd5b34670de0b6b3a7640000146100f957600080fd5b678ac7230489e8000047111561010e57600080fd5b56fea26469706673582212203a66100e14a39574e1cc97343d62df6c29c9ac348aea4c46030582d7af69d0e264736f6c634300080c0033",
    "sourcePath": "c:/Users/yanni/Documents/Formation Alyra/Solidity_security/contracts/09_ForceFeeding.sol",
    "compiler": {
        "name": "solc",
        "version": "0.8.12+commit.f00d7308"
    },
    "functionHashes": {
        "deposit()": "d0e30db0",
        "getBalanceContract()": "66bd78fd",
        "withdrawAll()": "853828b6"
    },
    "gasEstimates": {
        "creation": {
            "codeDepositCost": "65200",
            "executionCost": "24352",
            "totalCost": "89552"
        },
        "external": {
            "deposit()": "2332",
            "getBalanceContract()": "148",
            "withdrawAll()": "infinite"
        }
    }
}