{
    "contractName": "Bob",
    "abi": [
        {
            "inputs": [
                {
                    "internalType": "address",
                    "name": "c",
                    "type": "address"
                }
            ],
            "name": "ping",
            "outputs": [],
            "stateMutability": "nonpayable",
            "type": "function"
        }
    ],
    "bytecode": "60806040526000805460ff1916905534801561001a57600080fd5b506101188061002a6000396000f3fe6080604052348015600f57600080fd5b506004361060285760003560e01c806314df9e4314602d575b600080fd5b603c603836600460b4565b603e565b005b60005460ff1660b1576000816001600160a01b0316600260405160006040518083038185875af1925050503d80600081146093576040519150601f19603f3d011682016040523d82523d6000602084013e6098565b606091505b50509050801560af576000805460ff191660011790555b505b50565b60006020828403121560c557600080fd5b81356001600160a01b038116811460db57600080fd5b939250505056fea2646970667358221220d1e99cd70a672729782c7fe58bd410b4efa67d6c341ef602c77d33d60656413764736f6c634300080c0033",
    "sourcePath": "c:/Users/yanni/Documents/Formation Alyra/Solidity_security/contracts/07_DAOAttack.sol",
    "compiler": {
        "name": "solc",
        "version": "0.8.12+commit.f00d7308"
    },
    "functionHashes": {
        "ping(address)": "14df9e43"
    },
    "gasEstimates": {
        "creation": {
            "codeDepositCost": "56000",
            "executionCost": "24323",
            "totalCost": "80323"
        },
        "external": {
            "ping(address)": "infinite"
        }
    }
}