{
    "contractName": "CrowdsaleFixed2",
    "abi": [
        {
            "anonymous": false,
            "inputs": [
                {
                    "indexed": true,
                    "internalType": "address",
                    "name": "_receiver",
                    "type": "address"
                },
                {
                    "indexed": true,
                    "internalType": "uint256",
                    "name": "_value",
                    "type": "uint256"
                },
                {
                    "indexed": true,
                    "internalType": "uint256",
                    "name": "_timestamp",
                    "type": "uint256"
                }
            ],
            "name": "PayEther",
            "type": "event"
        },
        {
            "inputs": [
                {
                    "internalType": "address",
                    "name": "",
                    "type": "address"
                }
            ],
            "name": "balances",
            "outputs": [
                {
                    "internalType": "uint256",
                    "name": "",
                    "type": "uint256"
                }
            ],
            "stateMutability": "view",
            "type": "function"
        },
        {
            "inputs": [],
            "name": "savedBalance",
            "outputs": [
                {
                    "internalType": "uint256",
                    "name": "",
                    "type": "uint256"
                }
            ],
            "stateMutability": "view",
            "type": "function"
        },
        {
            "inputs": [],
            "name": "withdrawPayments",
            "outputs": [],
            "stateMutability": "nonpayable",
            "type": "function"
        },
        {
            "stateMutability": "payable",
            "type": "receive"
        }
    ],
    "bytecode": "60806040526000805534801561001457600080fd5b5061024e806100246000396000f3fe6080604052600436106100385760003560e01c806327e235e3146100af5780636103d70b146100ee578063785105f61461010557600080fd5b366100aa57336000908152600160205260408120805434929061005c9084906101b9565b925050819055503460008082825461007491906101b9565b90915550506040514290349030907f67848d9c2d923afb2c78cd66af34d1ba6abb924a3f9c44e6a03dfae94b2b814a90600090a4005b600080fd5b3480156100bb57600080fd5b506100dc6100ca3660046101d1565b60016020526000908152604090205481565b60405190815260200160405180910390f35b3480156100fa57600080fd5b5061010361011b565b005b34801561011157600080fd5b506100dc60005481565b336000818152600160205260409020548061013557600080fd5b8047101561014257600080fd5b806000808282546101539190610201565b90915550506001600160a01b038216600081815260016020526040808220829055514292849290917f67848d9c2d923afb2c78cd66af34d1ba6abb924a3f9c44e6a03dfae94b2b814a9190a45050565b634e487b7160e01b600052601160045260246000fd5b600082198211156101cc576101cc6101a3565b500190565b6000602082840312156101e357600080fd5b81356001600160a01b03811681146101fa57600080fd5b9392505050565b600082821015610213576102136101a3565b50039056fea2646970667358221220f840830de9246affb8c9731f91a34bfe59340f9c341eb2bfc0518b93c11a53d464736f6c634300080c0033",
    "sourcePath": "c:/Users/yanni/Documents/Formation Alyra/Solidity_security/contracts/11_Audit.sol",
    "compiler": {
        "name": "solc",
        "version": "0.8.12+commit.f00d7308"
    },
    "functionHashes": {
        "balances(address)": "27e235e3",
        "savedBalance()": "785105f6",
        "withdrawPayments()": "6103d70b"
    },
    "gasEstimates": {
        "creation": {
            "codeDepositCost": "118000",
            "executionCost": "5171",
            "totalCost": "123171"
        },
        "external": {
            "balances(address)": "2450",
            "savedBalance()": "2305",
            "withdrawPayments()": "33659"
        }
    }
}