{
    "contractName": "Crowdsale",
    "abi": [
        {
            "inputs": [
                {
                    "internalType": "address",
                    "name": "_escrow",
                    "type": "address"
                }
            ],
            "stateMutability": "nonpayable",
            "type": "constructor"
        },
        {
            "inputs": [
                {
                    "internalType": "address",
                    "name": "",
                    "type": "address"
                }
            ],
            "name": "balances",
            "outputs": [
                {
                    "internalType": "uint256",
                    "name": "",
                    "type": "uint256"
                }
            ],
            "stateMutability": "view",
            "type": "function"
        },
        {
            "inputs": [],
            "name": "escrow",
            "outputs": [
                {
                    "internalType": "address",
                    "name": "",
                    "type": "address"
                }
            ],
            "stateMutability": "view",
            "type": "function"
        },
        {
            "inputs": [],
            "name": "owner",
            "outputs": [
                {
                    "internalType": "address",
                    "name": "",
                    "type": "address"
                }
            ],
            "stateMutability": "view",
            "type": "function"
        },
        {
            "inputs": [],
            "name": "savedBalance",
            "outputs": [
                {
                    "internalType": "uint256",
                    "name": "",
                    "type": "uint256"
                }
            ],
            "stateMutability": "view",
            "type": "function"
        },
        {
            "inputs": [],
            "name": "withdrawPayments",
            "outputs": [],
            "stateMutability": "nonpayable",
            "type": "function"
        },
        {
            "stateMutability": "payable",
            "type": "receive"
        }
    ],
    "bytecode": "6080604052600060025534801561001557600080fd5b506040516103a83803806103a883398101604081905261003491610067565b60008054336001600160a01b031991821617909155600180549091166001600160a01b0392909216919091179055610097565b60006020828403121561007957600080fd5b81516001600160a01b038116811461009057600080fd5b9392505050565b610302806100a66000396000f3fe60806040526004361061004e5760003560e01c806327e235e3146100f85780636103d70b14610138578063785105f61461014f5780638da5cb5b14610165578063e2fdcc171461019d57600080fd5b366100f357336000908152600360205260408120805434929061007290849061026d565b92505081905550346002600082825461008b919061026d565b90915550506001546040516000916001600160a01b03169034908381818185875af1925050503d80600081146100dd576040519150601f19603f3d011682016040523d82523d6000602084013e6100e2565b606091505b50509050806100f057600080fd5b50005b600080fd5b34801561010457600080fd5b50610125610113366004610285565b60036020526000908152604090205481565b6040519081526020015b60405180910390f35b34801561014457600080fd5b5061014d6101bd565b005b34801561015b57600080fd5b5061012560025481565b34801561017157600080fd5b50600054610185906001600160a01b031681565b6040516001600160a01b03909116815260200161012f565b3480156101a957600080fd5b50600154610185906001600160a01b031681565b3360008181526003602052604081205460028054919283926101e09084906102b5565b90915550506001600160a01b0382166000818152600360205260408082208290555190919083908381818185875af1925050503d806000811461023f576040519150601f19603f3d011682016040523d82523d6000602084013e610244565b606091505b505090508061025257600080fd5b505050565b634e487b7160e01b600052601160045260246000fd5b6000821982111561028057610280610257565b500190565b60006020828403121561029757600080fd5b81356001600160a01b03811681146102ae57600080fd5b9392505050565b6000828210156102c7576102c7610257565b50039056fea264697066735822122011a72bc03864e276b9cbf14d16b82f83d6423af333bf49f896ef785be36b91cb64736f6c634300080c0033",
    "sourcePath": "c:/Users/yanni/Documents/Formation Alyra/Solidity_security/contracts/11_Audit.sol",
    "compiler": {
        "name": "solc",
        "version": "0.8.12+commit.f00d7308"
    },
    "functionHashes": {
        "balances(address)": "27e235e3",
        "escrow()": "e2fdcc17",
        "owner()": "8da5cb5b",
        "savedBalance()": "785105f6",
        "withdrawPayments()": "6103d70b"
    },
    "gasEstimates": {
        "creation": {
            "codeDepositCost": "154000",
            "executionCost": "infinite",
            "totalCost": "infinite"
        },
        "external": {
            "balances(address)": "2451",
            "escrow()": "2403",
            "owner()": "2381",
            "savedBalance()": "2306",
            "withdrawPayments()": "infinite"
        }
    }
}