{
    "contractName": "Election",
    "abi": [
        {
            "inputs": [],
            "name": "vote",
            "outputs": [],
            "stateMutability": "nonpayable",
            "type": "function"
        }
    ],
    "bytecode": "608060405234801561001057600080fd5b50610109806100206000396000f3fe6080604052348015600f57600080fd5b506004361060285760003560e01c8063632a9a5214602d575b600080fd5b60336035565b005b60005460405163a7771ee360e01b81523360048201819052916001600160a01b03169063a7771ee3906024016020604051808303816000875af1158015607f573d6000803e3d6000fd5b505050506040513d601f19601f8201168201806040525081019060a1919060ac565b60a957600080fd5b50565b60006020828403121560bd57600080fd5b8151801515811460cc57600080fd5b939250505056fea26469706673582212208703a5c70c8cc3ffe2c56e79cf809d01c11be2f33e18d947af2d55fc0dc5bb3264736f6c634300080c0033",
    "sourcePath": "c:/Users/yanni/Documents/Formation Alyra/Solidity_security/contracts/03_Modifier.sol",
    "compiler": {
        "name": "solc",
        "version": "0.8.12+commit.f00d7308"
    },
    "functionHashes": {
        "vote()": "632a9a52"
    },
    "gasEstimates": {
        "creation": {
            "codeDepositCost": "53000",
            "executionCost": "105",
            "totalCost": "53105"
        },
        "external": {
            "vote()": "infinite"
        }
    }
}