{
    "contractName": "MyContract",
    "abi": [
        {
            "inputs": [],
            "name": "balance",
            "outputs": [
                {
                    "internalType": "uint256",
                    "name": "",
                    "type": "uint256"
                }
            ],
            "stateMutability": "view",
            "type": "function"
        },
        {
            "inputs": [],
            "name": "myContract",
            "outputs": [],
            "stateMutability": "nonpayable",
            "type": "function"
        },
        {
            "inputs": [],
            "name": "owner",
            "outputs": [
                {
                    "internalType": "address",
                    "name": "",
                    "type": "address"
                }
            ],
            "stateMutability": "view",
            "type": "function"
        },
        {
            "inputs": [
                {
                    "internalType": "address payable",
                    "name": "receiver",
                    "type": "address"
                },
                {
                    "internalType": "uint256",
                    "name": "amount",
                    "type": "uint256"
                }
            ],
            "name": "sendTo",
            "outputs": [],
            "stateMutability": "nonpayable",
            "type": "function"
        },
        {
            "stateMutability": "payable",
            "type": "receive"
        }
    ],
    "bytecode": "608060405234801561001057600080fd5b50610219806100206000396000f3fe6080604052600436106100435760003560e01c80638da5cb5b1461004f5780639e1a00aa1461008c578063b69ef8a8146100ae578063bc33657a146100d257600080fd5b3661004a57005b600080fd5b34801561005b57600080fd5b5060005461006f906001600160a01b031681565b6040516001600160a01b0390911681526020015b60405180910390f35b34801561009857600080fd5b506100ac6100a73660046101ab565b6100fa565b005b3480156100ba57600080fd5b506100c460015481565b604051908152602001610083565b3480156100de57600080fd5b506100ac600080546001600160a01b0319163317905547600155565b6000546001600160a01b031632146101465760405162461bcd60e51b815260040161013d90602080825260049082015263746f746f60e01b604082015260600190565b60405180910390fd5b6000826001600160a01b03168260405160006040518083038185875af1925050503d8060008114610193576040519150601f19603f3d011682016040523d82523d6000602084013e610198565b606091505b50509050806101a657600080fd5b505050565b600080604083850312156101be57600080fd5b82356001600160a01b03811681146101d557600080fd5b94602093909301359350505056fea2646970667358221220a03f058df83e9399ae40b6290a582a71f68fafd1a36aa987c9482625e65f6f1564736f6c634300080c0033",
    "sourcePath": "c:/Users/yanni/Documents/Formation Alyra/Solidity_security/contracts/05_TxOrigin.sol",
    "compiler": {
        "name": "solc",
        "version": "0.8.12+commit.f00d7308"
    },
    "functionHashes": {
        "balance()": "b69ef8a8",
        "myContract()": "bc33657a",
        "owner()": "8da5cb5b",
        "sendTo(address,uint256)": "9e1a00aa"
    },
    "gasEstimates": {
        "creation": {
            "codeDepositCost": "107400",
            "executionCost": "153",
            "totalCost": "107553"
        },
        "external": {
            "balance()": "2317",
            "myContract()": "46519",
            "owner()": "2304",
            "sendTo(address,uint256)": "infinite"
        }
    }
}