{
    "contractName": "MyContract",
    "abi": [
        {
            "inputs": [],
            "name": "balance",
            "outputs": [
                {
                    "internalType": "uint256",
                    "name": "",
                    "type": "uint256"
                }
            ],
            "stateMutability": "view",
            "type": "function"
        },
        {
            "inputs": [],
            "name": "block",
            "outputs": [
                {
                    "internalType": "uint256",
                    "name": "",
                    "type": "uint256"
                }
            ],
            "stateMutability": "view",
            "type": "function"
        },
        {
            "inputs": [],
            "name": "myContract",
            "outputs": [],
            "stateMutability": "nonpayable",
            "type": "function"
        },
        {
            "inputs": [],
            "name": "owner",
            "outputs": [
                {
                    "internalType": "address",
                    "name": "",
                    "type": "address"
                }
            ],
            "stateMutability": "view",
            "type": "function"
        },
        {
            "inputs": [
                {
                    "internalType": "address payable",
                    "name": "receiver",
                    "type": "address"
                },
                {
                    "internalType": "uint256",
                    "name": "amount",
                    "type": "uint256"
                }
            ],
            "name": "sendTo",
            "outputs": [],
            "stateMutability": "nonpayable",
            "type": "function"
        },
        {
            "stateMutability": "payable",
            "type": "receive"
        }
    ],
    "bytecode": "608060405234801561001057600080fd5b50610233806100206000396000f3fe60806040526004361061004e5760003560e01c8063575cb0f61461005a5780638da5cb5b1461007c5780639e1a00aa146100b4578063b69ef8a8146100d6578063bc33657a146100ec57600080fd5b3661005557005b600080fd5b34801561006657600080fd5b50425b6040519081526020015b60405180910390f35b34801561008857600080fd5b5060005461009c906001600160a01b031681565b6040516001600160a01b039091168152602001610073565b3480156100c057600080fd5b506100d46100cf3660046101c5565b610114565b005b3480156100e257600080fd5b5061006960015481565b3480156100f857600080fd5b506100d4600080546001600160a01b0319163317905547600155565b6000546001600160a01b031632146101605760405162461bcd60e51b815260040161015790602080825260049082015263746f746f60e01b604082015260600190565b60405180910390fd5b6000826001600160a01b03168260405160006040518083038185875af1925050503d80600081146101ad576040519150601f19603f3d011682016040523d82523d6000602084013e6101b2565b606091505b50509050806101c057600080fd5b505050565b600080604083850312156101d857600080fd5b82356001600160a01b03811681146101ef57600080fd5b94602093909301359350505056fea2646970667358221220b3fd3a868c986a6263d6390697e712ac9c15509d2394e53a4c815045a931aaab64736f6c634300080c0033",
    "sourcePath": "c:/Users/yanni/Documents/Formation Alyra/Solidity_security/contracts/05_TxOrigin.sol",
    "compiler": {
        "name": "solc",
        "version": "0.8.12+commit.f00d7308"
    },
    "functionHashes": {
        "balance()": "b69ef8a8",
        "block()": "575cb0f6",
        "myContract()": "bc33657a",
        "owner()": "8da5cb5b",
        "sendTo(address,uint256)": "9e1a00aa"
    },
    "gasEstimates": {
        "creation": {
            "codeDepositCost": "112600",
            "executionCost": "159",
            "totalCost": "112759"
        },
        "external": {
            "balance()": "2328",
            "block()": "147",
            "myContract()": "46541",
            "owner()": "2337",
            "sendTo(address,uint256)": "infinite"
        }
    }
}