{
    "contractName": "MyContract",
    "abi": [
        {
            "inputs": [],
            "name": "myContract",
            "outputs": [],
            "stateMutability": "nonpayable",
            "type": "function"
        },
        {
            "inputs": [
                {
                    "internalType": "address payable",
                    "name": "receiver",
                    "type": "address"
                },
                {
                    "internalType": "uint256",
                    "name": "amount",
                    "type": "uint256"
                }
            ],
            "name": "sendTo",
            "outputs": [],
            "stateMutability": "nonpayable",
            "type": "function"
        }
    ],
    "bytecode": "608060405234801561001057600080fd5b50610151806100206000396000f3fe608060405234801561001057600080fd5b50600436106100365760003560e01c80639e1a00aa1461003b578063bc33657a14610050575b600080fd5b61004e6100493660046100e3565b610067565b005b61004e600080546001600160a01b03191633179055565b6000546001600160a01b0316321461007e57600080fd5b6000826001600160a01b03168260405160006040518083038185875af1925050503d80600081146100cb576040519150601f19603f3d011682016040523d82523d6000602084013e6100d0565b606091505b50509050806100de57600080fd5b505050565b600080604083850312156100f657600080fd5b82356001600160a01b038116811461010d57600080fd5b94602093909301359350505056fea2646970667358221220b42eb8eacfdc0f740ca73f624b2d8f16d07b76645c194cbd4894a4606c67367e64736f6c634300080c0033",
    "sourcePath": "c:/Users/yanni/Documents/Formation Alyra/Solidity_security/contracts/05_TxOrigin.sol",
    "compiler": {
        "name": "solc",
        "version": "0.8.12+commit.f00d7308"
    },
    "functionHashes": {
        "myContract()": "bc33657a",
        "sendTo(address,uint256)": "9e1a00aa"
    },
    "gasEstimates": {
        "creation": {
            "codeDepositCost": "67400",
            "executionCost": "117",
            "totalCost": "67517"
        },
        "external": {
            "myContract()": "24367",
            "sendTo(address,uint256)": "infinite"
        }
    }
}