{
    "contractName": "Registry",
    "abi": [
        {
            "inputs": [
                {
                    "internalType": "address",
                    "name": "_addr",
                    "type": "address"
                }
            ],
            "name": "isVoter",
            "outputs": [
                {
                    "internalType": "bool",
                    "name": "",
                    "type": "bool"
                }
            ],
            "stateMutability": "nonpayable",
            "type": "function"
        }
    ],
    "bytecode": "608060405234801561001057600080fd5b5060b68061001f6000396000f3fe6080604052348015600f57600080fd5b506004361060285760003560e01c8063a7771ee314602d575b600080fd5b603e60383660046052565b50600090565b604051901515815260200160405180910390f35b600060208284031215606357600080fd5b81356001600160a01b0381168114607957600080fd5b939250505056fea2646970667358221220ee4d98e06a92cdee949cd88053a70de80e81f998719fcf69de9de8177e31c46c64736f6c634300080c0033",
    "sourcePath": "c:/Users/yanni/Documents/Formation Alyra/Solidity_security/contracts/03_Modifier.sol",
    "compiler": {
        "name": "solc",
        "version": "0.8.12+commit.f00d7308"
    },
    "functionHashes": {
        "isVoter(address)": "a7771ee3"
    },
    "gasEstimates": {
        "creation": {
            "codeDepositCost": "36400",
            "executionCost": "87",
            "totalCost": "36487"
        },
        "external": {
            "isVoter(address)": "292"
        }
    }
}