{
    "contractName": "Vault",
    "abi": [
        {
            "inputs": [
                {
                    "internalType": "address",
                    "name": "",
                    "type": "address"
                }
            ],
            "name": "balances",
            "outputs": [
                {
                    "internalType": "uint256",
                    "name": "",
                    "type": "uint256"
                }
            ],
            "stateMutability": "view",
            "type": "function"
        },
        {
            "inputs": [],
            "name": "redeem",
            "outputs": [],
            "stateMutability": "nonpayable",
            "type": "function"
        },
        {
            "inputs": [],
            "name": "store",
            "outputs": [],
            "stateMutability": "payable",
            "type": "function"
        }
    ],
    "bytecode": "608060405234801561001057600080fd5b506101bd806100206000396000f3fe6080604052600436106100345760003560e01c806327e235e314610039578063975057e714610078578063be040fb014610082575b600080fd5b34801561004557600080fd5b50610066610054366004610131565b60006020819052908152604090205481565b60405190815260200160405180910390f35b610080610097565b005b34801561008e57600080fd5b506100806100bd565b33600090815260208190526040812080543492906100b6908490610161565b9091555050565b336000818152602081905260408082205490519192918381818185875af1925050503d806000811461010b576040519150601f19603f3d011682016040523d82523d6000602084013e610110565b606091505b50503360009081526020819052604081205590508061012e57600080fd5b50565b60006020828403121561014357600080fd5b81356001600160a01b038116811461015a57600080fd5b9392505050565b6000821982111561018257634e487b7160e01b600052601160045260246000fd5b50019056fea26469706673582212208e65a6d46acd2cfe5f85c229d97e458a2b7f2360012be890f8ea461d24a3f62a64736f6c634300080c0033",
    "sourcePath": "c:/Users/yanni/Documents/Formation Alyra/Solidity_security/contracts/10_Reentrency.sol",
    "compiler": {
        "name": "solc",
        "version": "0.8.12+commit.f00d7308"
    },
    "functionHashes": {
        "balances(address)": "27e235e3",
        "redeem()": "be040fb0",
        "store()": "975057e7"
    },
    "gasEstimates": {
        "creation": {
            "codeDepositCost": "89000",
            "executionCost": "135",
            "totalCost": "89135"
        },
        "external": {
            "balances(address)": "2453",
            "redeem()": "infinite",
            "store()": "24488"
        }
    }
}