{
    "contractName": "VaultFixed",
    "abi": [
        {
            "inputs": [
                {
                    "internalType": "address",
                    "name": "",
                    "type": "address"
                }
            ],
            "name": "balances",
            "outputs": [
                {
                    "internalType": "uint256",
                    "name": "",
                    "type": "uint256"
                }
            ],
            "stateMutability": "view",
            "type": "function"
        },
        {
            "inputs": [],
            "name": "redeem",
            "outputs": [],
            "stateMutability": "nonpayable",
            "type": "function"
        },
        {
            "inputs": [],
            "name": "store",
            "outputs": [],
            "stateMutability": "payable",
            "type": "function"
        }
    ],
    "bytecode": "608060405234801561001057600080fd5b506101aa806100206000396000f3fe6080604052600436106100345760003560e01c806327e235e314610039578063975057e714610078578063be040fb014610082575b600080fd5b34801561004557600080fd5b5061006661005436600461011e565b60006020819052908152604090205481565b60405190815260200160405180910390f35b610080610097565b005b34801561008e57600080fd5b506100806100bd565b33600090815260208190526040812080543492906100b690849061014e565b9091555050565b33600081815260208190526040808220805490839055905190929083908381818185875af1925050503d8060008114610112576040519150601f19603f3d011682016040523d82523d6000602084013e610117565b606091505b5050505050565b60006020828403121561013057600080fd5b81356001600160a01b038116811461014757600080fd5b9392505050565b6000821982111561016f57634e487b7160e01b600052601160045260246000fd5b50019056fea2646970667358221220ed53008376b8412e9b79633ebe2f09a38a1b40bd2fea9e50840762dba23bf02a64736f6c634300080c0033",
    "sourcePath": "c:/Users/yanni/Documents/Formation Alyra/Solidity_security/contracts/07_RedeemAttack.sol",
    "compiler": {
        "name": "solc",
        "version": "0.8.12+commit.f00d7308"
    },
    "functionHashes": {
        "balances(address)": "27e235e3",
        "redeem()": "be040fb0",
        "store()": "975057e7"
    },
    "gasEstimates": {
        "creation": {
            "codeDepositCost": "85200",
            "executionCost": "135",
            "totalCost": "85335"
        },
        "external": {
            "balances(address)": "2453",
            "redeem()": "infinite",
            "store()": "24488"
        }
    }
}