{
    "contractName": "Worker",
    "abi": [
        {
            "inputs": [
                {
                    "internalType": "address",
                    "name": "_internalWorker",
                    "type": "address"
                }
            ],
            "name": "doWork",
            "outputs": [],
            "stateMutability": "nonpayable",
            "type": "function"
        }
    ],
    "bytecode": "608060405234801561001057600080fd5b5061016a806100206000396000f3fe608060405234801561001057600080fd5b506004361061002b5760003560e01c80633b66042914610030575b600080fd5b61004361003e3660046100c9565b610045565b005b60408051600481526024810182526020810180516001600160e01b03166313186e9d60e11b17905290516001600160a01b03831691610083916100f9565b600060405180830381855af49150503d80600081146100be576040519150601f19603f3d011682016040523d82523d6000602084013e6100c3565b606091505b50505050565b6000602082840312156100db57600080fd5b81356001600160a01b03811681146100f257600080fd5b9392505050565b6000825160005b8181101561011a5760208186018101518583015201610100565b81811115610129576000828501525b50919091019291505056fea2646970667358221220e20a2a1fc8abde33f4fa6e42de8a13d120d9ac32fc058ebe4640ba1b6d8e2a0464736f6c634300080c0033",
    "sourcePath": "c:/Users/yanni/Documents/Formation Alyra/Solidity_security/contracts/02_DelagateCall.sol",
    "compiler": {
        "name": "solc",
        "version": "0.8.12+commit.f00d7308"
    },
    "functionHashes": {
        "doWork(address)": "3b660429"
    },
    "gasEstimates": {
        "creation": {
            "codeDepositCost": "72400",
            "executionCost": "123",
            "totalCost": "72523"
        },
        "external": {
            "doWork(address)": "infinite"
        }
    }
}