{
  "contractName": "Destructor",
  "abi": [
    {
      "inputs": [],
      "name": "doWork",
      "outputs": [],
      "stateMutability": "nonpayable",
      "type": "function"
    }
  ],
  "bytecode": "0x6080604052348015600f57600080fd5b5060858061001e6000396000f3fe6080604052348015600f57600080fd5b506004361060285760003560e01c80632630dd3a14602d575b600080fd5b60336035565b005b600073ffffffffffffffffffffffffffffffffffffffff16fffea26469706673582212202c08180743ead05a41e5e3008f9e3407ef5c3c1f607446d9ddb72f603675405264736f6c634300080c0033",
  "immutableReferences": {},
  "source": "// SPDX-License-Identifier: MIT\r\npragma solidity 0.8.12;\r\n\r\ncontract Destructor\r\n{\r\n    function doWork() external\r\n    {\r\n        selfdestruct(payable(0));\r\n    }\r\n}\r\n\r\ncontract Worker\r\n{\r\n    function doWork(address _internalWorker) public\r\n    {\r\n        // unsafe\r\n        _internalWorker.delegatecall(abi.encodeWithSignature(\"doWork()\"));\r\n    }\r\n}\r\n",
  "sourcePath": "C:\\Users\\yanni\\Documents\\Formation Alyra\\Solidity_security\\contracts\\02_DelagateCall.sol",
  "compiler": {
    "name": "solc",
    "version": "0.8.12+commit.f00d7308.Emscripten.clang"
  },
  "schemaVersion": "3.4.4",
  "updatedAt": "2022-02-22T23:05:47.668Z",
  "devdoc": {
    "kind": "dev",
    "methods": {},
    "version": 1
  },
  "userdoc": {
    "kind": "user",
    "methods": {},
    "version": 1
  }
}