{
  "contractName": "Election",
  "abi": [
    {
      "inputs": [],
      "name": "vote",
      "outputs": [],
      "stateMutability": "nonpayable",
      "type": "function"
    }
  ],
  "bytecode": "0x608060405234801561001057600080fd5b506101df806100206000396000f3fe608060405234801561001057600080fd5b506004361061002b5760003560e01c8063632a9a5214610030575b600080fd5b61003861003a565b005b3360008054906101000a900473ffffffffffffffffffffffffffffffffffffffff1673ffffffffffffffffffffffffffffffffffffffff1663a7771ee3826040518263ffffffff1660e01b81526004016100949190610124565b6020604051808303816000875af11580156100b3573d6000803e3d6000fd5b505050506040513d601f19601f820116820180604052508101906100d7919061017c565b6100e057600080fd5b50565b600073ffffffffffffffffffffffffffffffffffffffff82169050919050565b600061010e826100e3565b9050919050565b61011e81610103565b82525050565b60006020820190506101396000830184610115565b92915050565b600080fd5b60008115159050919050565b61015981610144565b811461016457600080fd5b50565b60008151905061017681610150565b92915050565b6000602082840312156101925761019161013f565b5b60006101a084828501610167565b9150509291505056fea2646970667358221220482cb91c43d1276ffcb7176651d5675ff504310b7cde2b1062d8ce853d67b86464736f6c634300080c0033",
  "immutableReferences": {},
  "source": "// SPDX-License-Identifier: MIT\r\npragma solidity 0.8.12;\r\n\r\ncontract Registry {\r\n    address owner;\r\n\r\n    function isVoter(address _addr) external returns(bool) {\r\n        // Code\r\n    }\r\n}\r\n\r\ncontract Election {\r\n    Registry registry;\r\n\r\n    modifier isEligible(address _addr) {\r\n        require(registry.isVoter(_addr));\r\n        _;\r\n    }\r\n\r\n    function vote() isEligible(msg.sender) public {\r\n        // Code\r\n    }\r\n}\r\n",
  "sourcePath": "C:\\Users\\yanni\\Documents\\Formation Alyra\\Solidity_security\\contracts\\03_Modifier.sol",
  "compiler": {
    "name": "solc",
    "version": "0.8.12+commit.f00d7308.Emscripten.clang"
  },
  "schemaVersion": "3.4.4",
  "updatedAt": "2022-02-22T23:05:47.682Z",
  "devdoc": {
    "kind": "dev",
    "methods": {},
    "version": 1
  },
  "userdoc": {
    "kind": "user",
    "methods": {},
    "version": 1
  }
}