{
  "contractName": "MyContract",
  "abi": [
    {
      "inputs": [],
      "name": "balance",
      "outputs": [
        {
          "internalType": "uint256",
          "name": "",
          "type": "uint256"
        }
      ],
      "stateMutability": "view",
      "type": "function",
      "constant": true
    },
    {
      "inputs": [],
      "name": "owner",
      "outputs": [
        {
          "internalType": "address",
          "name": "",
          "type": "address"
        }
      ],
      "stateMutability": "view",
      "type": "function",
      "constant": true
    },
    {
      "stateMutability": "payable",
      "type": "receive",
      "payable": true
    },
    {
      "inputs": [],
      "name": "myContract",
      "outputs": [],
      "stateMutability": "nonpayable",
      "type": "function"
    },
    {
      "inputs": [
        {
          "internalType": "address payable",
          "name": "receiver",
          "type": "address"
        },
        {
          "internalType": "uint256",
          "name": "amount",
          "type": "uint256"
        }
      ],
      "name": "sendTo",
      "outputs": [],
      "stateMutability": "nonpayable",
      "type": "function"
    }
  ],
  "bytecode": "0x608060405234801561001057600080fd5b50610499806100206000396000f3fe6080604052600436106100435760003560e01c80638da5cb5b1461004f5780639e1a00aa1461007a578063b69ef8a8146100a3578063bc33657a146100ce5761004a565b3661004a57005b600080fd5b34801561005b57600080fd5b506100646100e5565b60405161007191906102a2565b60405180910390f35b34801561008657600080fd5b506100a1600480360381019061009c9190610336565b610109565b005b3480156100af57600080fd5b506100b8610212565b6040516100c59190610385565b60405180910390f35b3480156100da57600080fd5b506100e3610218565b005b60008054906101000a900473ffffffffffffffffffffffffffffffffffffffff1681565b60008054906101000a900473ffffffffffffffffffffffffffffffffffffffff1673ffffffffffffffffffffffffffffffffffffffff163273ffffffffffffffffffffffffffffffffffffffff1614610197576040517f08c379a000000000000000000000000000000000000000000000000000000000815260040161018e906103fd565b60405180910390fd5b60008273ffffffffffffffffffffffffffffffffffffffff16826040516101bd9061044e565b60006040518083038185875af1925050503d80600081146101fa576040519150601f19603f3d011682016040523d82523d6000602084013e6101ff565b606091505b505090508061020d57600080fd5b505050565b60015481565b336000806101000a81548173ffffffffffffffffffffffffffffffffffffffff021916908373ffffffffffffffffffffffffffffffffffffffff16021790555047600181905550565b600073ffffffffffffffffffffffffffffffffffffffff82169050919050565b600061028c82610261565b9050919050565b61029c81610281565b82525050565b60006020820190506102b76000830184610293565b92915050565b600080fd5b60006102cd82610261565b9050919050565b6102dd816102c2565b81146102e857600080fd5b50565b6000813590506102fa816102d4565b92915050565b6000819050919050565b61031381610300565b811461031e57600080fd5b50565b6000813590506103308161030a565b92915050565b6000806040838503121561034d5761034c6102bd565b5b600061035b858286016102eb565b925050602061036c85828601610321565b9150509250929050565b61037f81610300565b82525050565b600060208201905061039a6000830184610376565b92915050565b600082825260208201905092915050565b7f746f746f00000000000000000000000000000000000000000000000000000000600082015250565b60006103e76004836103a0565b91506103f2826103b1565b602082019050919050565b60006020820190508181036000830152610416816103da565b9050919050565b600081905092915050565b50565b600061043860008361041d565b915061044382610428565b600082019050919050565b60006104598261042b565b915081905091905056fea2646970667358221220d47abebc60c5cedb1db73d635c0d4a7cad66355afabf03b19bc787c160490e5564736f6c634300080c0033",
  "immutableReferences": {},
  "source": "// SPDX-License-Identifier: MIT\r\npragma solidity 0.8.12;\r\n\r\ncontract MyContract {\r\n\r\n    address public owner;\r\n    uint public balance;\r\n\r\n    function myContract() public {\r\n        owner = msg.sender;\r\n        balance = address(this).balance;\r\n\r\n    }\r\n\r\n    function sendTo(address payable receiver, uint amount) public {\r\n        require(tx.origin == owner,\"toto\");\r\n        (bool success, ) = receiver.call{value:amount}(\"\");\r\n        require(success);\r\n    }\r\n\r\n    receive() external payable{}\r\n\r\n}\r\n",
  "sourcePath": "C:\\Users\\yanni\\Documents\\Formation Alyra\\Solidity_security\\contracts\\05_TxOrigin.sol",
  "compiler": {
    "name": "solc",
    "version": "0.8.12+commit.f00d7308.Emscripten.clang"
  },
  "schemaVersion": "3.4.4",
  "updatedAt": "2022-02-27T18:02:34.340Z",
  "networkType": "ethereum",
  "devdoc": {
    "kind": "dev",
    "methods": {},
    "version": 1
  },
  "userdoc": {
    "kind": "user",
    "methods": {},
    "version": 1
  }
}