{
  "contractName": "Registry",
  "abi": [
    {
      "inputs": [
        {
          "internalType": "address",
          "name": "_addr",
          "type": "address"
        }
      ],
      "name": "isVoter",
      "outputs": [
        {
          "internalType": "bool",
          "name": "",
          "type": "bool"
        }
      ],
      "stateMutability": "nonpayable",
      "type": "function"
    }
  ],
  "bytecode": "0x608060405234801561001057600080fd5b50610163806100206000396000f3fe608060405234801561001057600080fd5b506004361061002b5760003560e01c8063a7771ee314610030575b600080fd5b61004a600480360381019061004591906100ca565b610060565b6040516100579190610112565b60405180910390f35b6000919050565b600080fd5b600073ffffffffffffffffffffffffffffffffffffffff82169050919050565b60006100978261006c565b9050919050565b6100a78161008c565b81146100b257600080fd5b50565b6000813590506100c48161009e565b92915050565b6000602082840312156100e0576100df610067565b5b60006100ee848285016100b5565b91505092915050565b60008115159050919050565b61010c816100f7565b82525050565b60006020820190506101276000830184610103565b9291505056fea2646970667358221220c159a9895adcef46a70e1c6e66a12fad7338b3c6a38bf1bb67cf95784d0aca6664736f6c634300080c0033",
  "immutableReferences": {},
  "source": "// SPDX-License-Identifier: MIT\r\npragma solidity 0.8.12;\r\n\r\ncontract Registry {\r\n    address owner;\r\n\r\n    function isVoter(address _addr) external returns(bool) {\r\n        // Code\r\n    }\r\n}\r\n\r\ncontract Election {\r\n    Registry registry;\r\n\r\n    modifier isEligible(address _addr) {\r\n        require(registry.isVoter(_addr));\r\n        _;\r\n    }\r\n\r\n    function vote() isEligible(msg.sender) public {\r\n        // Code\r\n    }\r\n}\r\n",
  "sourcePath": "C:\\Users\\yanni\\Documents\\Formation Alyra\\Solidity_security\\contracts\\03_Modifier.sol",
  "compiler": {
    "name": "solc",
    "version": "0.8.12+commit.f00d7308.Emscripten.clang"
  },
  "schemaVersion": "3.4.4",
  "updatedAt": "2022-02-22T23:05:47.691Z",
  "devdoc": {
    "kind": "dev",
    "methods": {},
    "version": 1
  },
  "userdoc": {
    "kind": "user",
    "methods": {},
    "version": 1
  }
}