{
  "contractName": "Worker",
  "abi": [
    {
      "inputs": [
        {
          "internalType": "address",
          "name": "_internalWorker",
          "type": "address"
        }
      ],
      "name": "doWork",
      "outputs": [],
      "stateMutability": "nonpayable",
      "type": "function"
    }
  ],
  "bytecode": "0x608060405234801561001057600080fd5b50610290806100206000396000f3fe608060405234801561001057600080fd5b506004361061002b5760003560e01c80633b66042914610030575b600080fd5b61004a6004803603810190610045919061019c565b61004c565b005b8073ffffffffffffffffffffffffffffffffffffffff166040516024016040516020818303038152906040527f2630dd3a000000000000000000000000000000000000000000000000000000007bffffffffffffffffffffffffffffffffffffffffffffffffffffffff19166020820180517bffffffffffffffffffffffffffffffffffffffffffffffffffffffff83818316178352505050506040516100f39190610243565b600060405180830381855af49150503d806000811461012e576040519150601f19603f3d011682016040523d82523d6000602084013e610133565b606091505b50505050565b600080fd5b600073ffffffffffffffffffffffffffffffffffffffff82169050919050565b60006101698261013e565b9050919050565b6101798161015e565b811461018457600080fd5b50565b60008135905061019681610170565b92915050565b6000602082840312156101b2576101b1610139565b5b60006101c084828501610187565b91505092915050565b600081519050919050565b600081905092915050565b60005b838110156101fd5780820151818401526020810190506101e2565b8381111561020c576000848401525b50505050565b600061021d826101c9565b61022781856101d4565b93506102378185602086016101df565b80840191505092915050565b600061024f8284610212565b91508190509291505056fea26469706673582212201e02410d824155a08e4635b9fa9caef01f3b67d506076d3114a3521842b16f5564736f6c634300080c0033",
  "immutableReferences": {},
  "source": "// SPDX-License-Identifier: MIT\r\npragma solidity 0.8.12;\r\n\r\ncontract Destructor\r\n{\r\n    function doWork() external\r\n    {\r\n        selfdestruct(payable(0));\r\n    }\r\n}\r\n\r\ncontract Worker\r\n{\r\n    function doWork(address _internalWorker) public\r\n    {\r\n        // unsafe\r\n        _internalWorker.delegatecall(abi.encodeWithSignature(\"doWork()\"));\r\n    }\r\n}\r\n",
  "sourcePath": "C:\\Users\\yanni\\Documents\\Formation Alyra\\Solidity_security\\contracts\\02_DelagateCall.sol",
  "compiler": {
    "name": "solc",
    "version": "0.8.12+commit.f00d7308.Emscripten.clang"
  },
  "schemaVersion": "3.4.4",
  "updatedAt": "2022-02-22T12:05:08.791Z",
  "devdoc": {
    "kind": "dev",
    "methods": {},
    "version": 1
  },
  "userdoc": {
    "kind": "user",
    "methods": {},
    "version": 1
  }
}